{
    "contractName": "Assign",
    "abi": [
        {
            "inputs": [
                {
                    "internalType": "uint256",
                    "name": "_amount",
                    "type": "uint256"
                }
            ],
            "name": "Assigned",
            "outputs": [
                {
                    "internalType": "uint256",
                    "name": "",
                    "type": "uint256"
                }
            ],
            "stateMutability": "nonpayable",
            "type": "function"
        },
        {
            "inputs": [],
            "name": "amount",
            "outputs": [
                {
                    "internalType": "uint256",
                    "name": "",
                    "type": "uint256"
                }
            ],
            "stateMutability": "view",
            "type": "function"
        }
    ],
    "bytecode": "608060405234801561001057600080fd5b5060b28061001f6000396000f3fe6080604052348015600f57600080fd5b506004361060325760003560e01c80632fbe45aa146037578063aa8c217c14605c575b600080fd5b604a60423660046064565b600081905590565b60405190815260200160405180910390f35b604a60005481565b600060208284031215607557600080fd5b503591905056fea26469706673582212209083e443885323743a3c8efbcc9711ab7f318661d261ee77fd6b4211d581e6e064736f6c634300080b0033",
    "sourcePath": "c:/Users/PC/Desktop/solid/contracts/solid.sol",
    "compiler": {
        "name": "solc",
        "version": "0.8.11+commit.d7f03943"
    },
    "functionHashes": {
        "Assigned(uint256)": "2fbe45aa",
        "amount()": "aa8c217c"
    },
    "gasEstimates": {
        "creation": {
            "codeDepositCost": "35600",
            "executionCost": "87",
            "totalCost": "35687"
        },
        "external": {
            "Assigned(uint256)": "22344",
            "amount()": "2283"
        }
    }
}