{
    "contractName": "solid",
    "abi": [
        {
            "inputs": [
                {
                    "internalType": "uint256",
                    "name": "_amount",
                    "type": "uint256"
                }
            ],
            "name": "Unassigned",
            "outputs": [
                {
                    "internalType": "uint256",
                    "name": "",
                    "type": "uint256"
                }
            ],
            "stateMutability": "nonpayable",
            "type": "function"
        },
        {
            "inputs": [],
            "name": "amount",
            "outputs": [
                {
                    "internalType": "uint256",
                    "name": "",
                    "type": "uint256"
                }
            ],
            "stateMutability": "view",
            "type": "function"
        }
    ],
    "bytecode": "608060405234801561001057600080fd5b5060b28061001f6000396000f3fe6080604052348015600f57600080fd5b506004361060325760003560e01c806307db78f1146037578063aa8c217c14605c575b600080fd5b604a60423660046064565b600081905590565b60405190815260200160405180910390f35b604a60005481565b600060208284031215607557600080fd5b503591905056fea26469706673582212208b5da6635b3eb5ebfd9e2d5e86c22346063c84340c3a732467561f3c3441e58264736f6c634300080b0033",
    "sourcePath": "c:/Users/PC/Desktop/solid/contracts/solid.sol",
    "compiler": {
        "name": "solc",
        "version": "0.8.11+commit.d7f03943"
    },
    "functionHashes": {
        "Unassigned(uint256)": "07db78f1",
        "amount()": "aa8c217c"
    },
    "gasEstimates": {
        "creation": {
            "codeDepositCost": "35600",
            "executionCost": "87",
            "totalCost": "35687"
        },
        "external": {
            "Unassigned(uint256)": "22344",
            "amount()": "2283"
        }
    }
}